:020000040000fa
:080000000002040000000000f2
:020000040000fa
:10040000ef9120000e7f24000e0188000000000004
:100410000c000700a05d2100010020001100070072
:10042000000020000000e000020032000000020096
:10043000000000004e170200000000000040da003b
:100440000000fe004440a900601a20000000e00007
:100450000300320000002000a00188004440a800f2
:100460000000060091018800800078000000eb0089
:1004700015003700e280400032a0b4009101ba00bc
:10048000e280400032a0b4009102ba00e280400055
:1004900032a0b4000002eb00472bde00f507b200eb
:1004a000602ce10004003a000059eb008301e900f0
:1004b000fdff3e00040037006128e100010032002a
:1004c0000082eb00040007001101ba000200e00006
:1004d000e8ff3a00000006003159ba008301e90044
:1004e0000c0032002159ba008301e90008003200f3
:1004f0000400e00003003a00e280400032a0b400b3
:10050000f5ff370011d9ba008301e900faff3a007c
:100510008100e800e180400032a0b4000000060045
:100520000040da000000fe001004b10003003500b6
:100530009001b10001003c00100005000000050022
:10054000800078001104b100030035009101b10072
:1005500001003c000050a000000006001004b100a3
:10056000070035009001b100040034007000b100b4
:10057000030035009001b10001003c0010000500af
:10058000000005006900e100040035006d00e10095
:10059000030034000002b100010032000000050039
:1005a000100005000a00fa0080017800e20f5000f8
:1005b00028003e00e0488000e10f500008003200b3
:1005c000802320000000e00005003200042320000a
:1005d00025232000462320008001780004003700f6
:1005e0000422200025222000462220008322200011
:1005f000144090000004e000040035008009eb0086
:10060000144090000074a000104298001540900023
:100610000028a30003003a00154090000024a00029
:10062000904298008001eb000700370015409000d1
:100630000008a300fdff320063c078000000fb004b
:10064000000b78008301e800828f5100f7ff3a0029
:100650000800370030002000b0bf9f00c3bf9f00dc
:10066000d1bf9f00e2bf9f006a80570000c0da0040
:100670006fb99700020078000080fa0000000600c1
:100680000a00fa00881f7800800178000000e0006e
:1006900029003a00e0488000e10f500008003200d5
:1006a000802320000000e000050032000423200029
:1006b00025232000672320008001780004003700f4
:1006c000042220002522200067222000832220000f
:1006d000144090000004e000040035008009eb00a5
:1006e000144090000074a000104298000002eb003b
:1006f0000c003700130a20001544780061406400a4
:1007000002003a008301e900fbff3a000402e8001e
:100710009541780061c06100050032001700780043
:100720008058780004035100820f5200f1ff3a0014
:10073000060051000800370020002000a0bf9f00e5
:10074000b3bf9f00c1bf9f00d2bf9f006c80570006
:1007500000c0da005fb897004f0478000080fa000c
:1007600000000600020ab900001bb9000200b80030
:10077000810042008100430000000600881f7800cd
:10078000000478005001be004000be00040040009c
:10079000858048000601490087814900009cbe0011
:1007a0000294be000400e1000588e1000690e1002b
:1007b0000798e10002003100680044001008e800da
:1007c0004f04780000000600f4874700889fbe00b1
:1007d0008a9fbe008c9fbe008e1f78000205be005f
:1007e0000004be00d4b79f00e5b79f00f6b79f0096
:1007f00087bf9f000000eb00c0b79f00b0b79f000d
:10080000a0b79f0090b79f0080b79f000d04200005
:10081000bfb097004fb09700000140000000e0001b
:100820000f003d004f08de0000007100c0b79f00c0
:100830009e00070001003d0012002000a1000700fb
:1008400001003d0012002000a6000700b1000700d3
:10085000b60007000f004000c8ff07002200370065
:100860004f08de0000067100ccb79f008f00070024
:1008700001003d00120020009200070001003d0031
:100880001200200097000700a20007000fb2970097
:100890009fb297002fb39700bfb39700a90007003e
:1008a0000000520081805a0002015b0083815b00de
:1008b00080b79f0091b79f00a2b79f00b3b79f007a
:1008c0000007eb009f0007000020e10001a8e10005
:1008d00002b0e10003b8e100010031001e00200079
:1008e0000e005600c0b79f004fb297000400e00012
:1008f0000700350010002000010020006011b80042
:1009000008047000898470000a0571008b857100ed
:100910008d06e900beff3a000400e00003003d0040
:10092000820007000f00400094ff07004fa89700c7
:100930000000e00004003a000fb497009fb4970055
:100940002fb59700bfb59700940007004f077800b8
:100950004f06be004f05be004f04be004f01b10060
:1009600000000600881f780018002000881f78000b
:1009700095ff07008f87e9004f047800000006000c
:10098000801feb0090ff07008f87e9000000060042
:10099000889fbe008a9fbe008c1f78006e000700f3
:1009a00007003d0073000700e00f5b00e08f5b0075
:1009b00007003d00320007000006eb00040037008e
:1009c0003400070002003d002a0007001c00200040
:1009d00072000700e3ff07000203be000002be0032
:1009e0000c00e00001003200220007000400be00fd
:1009f0000601be004f0678004f05be004f04be0042
:100a000000000600889fbe008a9fbe008c1f7800f1
:100a10005100070005003d0056000700e00f5b0095
:100a2000e08f5b0006003d0004003700190007005e
:100a300003003d006000b8006011b800100007001e
:100a400056000700ceff07000203be000002be00f2
:100a50000c00e00001003200060007000400be00a8
:100a60000601be004f0678004f05be004f04be00d1
:100a7000000006006000b8006011b80000003700f8
:100a800004025000858258000603590087835900ec
:100a9000000006000006eb00e00f5200e08f5a0055
:100aa000e00f5b00e08f5b0000000600018040006b
:100ab00090b79f000001eb008fb097000100e000ad
:100ac000000006000200700090b79f000180400007
:100ad00080b79f000001eb00ffa897000100e00035
:100ae000000006000200700080b79f0001804000f7
:100af0006faa9700cf20de0001007000f0af9f00ca
:100b000004024200250007004f18de0000027200b8
:100b100000000600e4af9f000804440089844c00f4
:100b20000a054d008b854d00000006003fb297007e
:100b3000cfb297005fb39700efb3970000fe2f008e
:100b4000000006003fb09700cfb097005fb197005c
:100b5000efb19700000006000205be000004be00d1
:100b6000e00f5000e08f5800e00f5900e08f59006f
:100b7000000006006000b8006011b80008045000d2
:100b8000898458000a0559008b8559001c002000f3
:100b9000e00f5200e08f5a00000006000800be007f
:100ba0000a01be00000006008001eb0002003700d1
:100bb000817178008301e800828f5100fcff3a00c8
:100bc000000006000c00fa00889fbe0000047800b8
:100bd000cfb09700f0ff2700d0bf9f008004eb004c
:100be00099bf9f0088bf9f00a8bf9f00200c2000d6
:100bf000b0bf9f0078815700708057001c0007002d
:100c00000fb89700094878000fb897000804500003
:100c1000080078004f04be000080fa0000000600c3
:100c20000c00fa00a0bf9f00c0bf9f000a00070091
:100c3000b0bf9f00f0bf9f00100c2000d0bf9f00ee
:100c400074815700efb097006c805700e9020700ed
:100c50000080fa0000000600800078003004e00008
:100c6000feff3a00010050000000e900000006000d
:100c7000fe874700889fbe008a9fbe008c9fbe00f3
:100c80008e1f7800f0b79f000107780082bf9f0099
:100c90000000eb00a0b79f009f0237008006eb002a
:100ca00050c2b30080cf5000090032000100fb00a9
:100cb000ffb09700f0030700e10f400096023200fa
:100cc000afb097008100e800a1b79f009202370003
:100cd0009e407800d0c2b30080cf50000c0032009c
:100ce00007003c006d40500080cf50000a003200e9
:100cf0006b40400080cf50000e003a0008003700e3
:100d000000c3b30080cf50000a003a00060037004d
:100d10000d30a000050037000d00a00003003700d3
:100d20000d10a000010037000d20a0000e07e80004
:100d3000e7ff37000d18a300010032000d00a100ed
:100d40000d38a300010032000d20a1000100fb00be
:100d500002fd2f0002004000e90f50000e003e008f
:100d60000002eb00c4b79f0082017800cfb2970069
:100d70006a28b9001e01fb00000141000301410087
:100d8000c2b79f005e00fb0003004000e90f500067
:100d90000b003e00f5ff37000006eb00ccb79f00cc
:100da000a0c2b30080cf500005003a000fb89700f2
:100db000c000780080bf9f00c1b79f000e07e80009
:100dc0000001eb00b2b79f00e0c2b3009e4f1000dd
:100dd00018003a000de0a0008e00e80064405000ca
:100de000914f100002003200010778000c0037001c
:100df0000fba9700c402780084bf9f00b5b79f0068
:100e00000e87e8000b0037003fb697006a60b90014
:100e10000000410003004000b0b79f000e07e8004b
:100e20001e01fb0003fd2f0003004100e90f5000ed
:100e3000f5ff3600be407800e1d79f00c0c6b30082
:100e400080cf5000220032000f003c00694050006b
:100e500080cf50007700320004003c000104e00025
:100e6000310232006b4050000f00370040c6b30023
:100e700080cf5000930032006540400080cf50008a
:100e80008b003a008f00370030c7b30080cf50008e
:100e90001a00320007003c006440500080cf500030
:100ea000110032000040e80080cf500080003a007e
:100eb0000f00370050c7b30080cf500080003200d1
:100ec0006340400080cf500079003a0009003700ad
:100ed000000028000d48a30001003a000001200096
:100ee00080867600d3ff37000d60a00075003700c4
:100ef0000d50a0000d70a000720037008fb8970051
:100f00004100780081bf9f00000478000000e000ed
:100f100001003a00488c20008004eb0001003700fb
:100f20008104e80089007800088044001004e00093
:100f3000fbff3a003fb197000200e00003003200df
:100f4000890f510001003100820478000002eb009b
:100f5000e4af9f00cfb29700898f520002003600a5
:100f600009805200e0af9f004368de00e1066000a8
:100f70001b003a000d06780009003700ffb097000b
:100f8000000220003c030700e10f40000300320094
:100f90002fb097000000e800a0b79f000c06e80003
:100fa000efa89700810f5600f4ff3a000081eb0094
:100fb000e2af9f000a003700880078003100fb0094
:100fc00001047800ffb097002b030700e10f4000f9
:100fd000030032002fb297000402e800a4b79f007c
:100fe0000900e90080047800e10f4000f2ff3a00b8
:100ff0000006eb000d00e0000a003a00c6013700d1
:10100000ffb09700000220001b030700e10f400023
:1010100003003200afb297008502e800a5b79f0039
:101020000c06e8006fa89700800f5600f4ff3a0006
:10103000b90137008fb897004100780081bf9f0049
:10104000cf80de0001017800820178000205be0039
:101050000004be000203be000002be004822de0003
:10106000482edd0004027600e4d79f000d48a3005f
:101070000a0032000404e00008003200e14f4200a0
:101080000600320071fd2f000180470004487800ff
:10109000184098002900200002003700f0d79f0078
:1010a0001900200072fd2f0002844700a1ff3700c5
:1010b00064fd2f0004844700190020009dff3700c5
:1010c0000d0cb3000d007800000cb20028003a00af
:1010d0000d00e00005003d008fba97004505be00f9
:1010e0004504be0085bf9f00140037000d48a300d3
:1010f0000b0032000fbe97004c00be008cbf9f005b
:101100004f89de00cf91de000002be0002037800ae
:10111000820378000605be000404be000700370005
:101120008fb897004100780081bf9f0000047800cd
:10113000cfc4de00090578008a057800e00f54006e
:10114000e08f5c00e00f5d00e08f5d001f003d0060
:101150003d00b3006000b8006011b8000804500002
:10116000898458000a0559008b85590017003700fb
:101170000d00e00005003d000fb997004205be00dc
:101180004204be0082bf9f00100037000d48a3003c
:10119000070032000fba97004400be0084bf9f00d2
:1011a0006011b8000205be000004be000700370051
:1011b0008fba97004500780085bf9f000004780033
:1011c000090020000a0020000b0020003fb6970015
:1011d0000c00e00007003a00e00f5400e08f5c00d4
:1011e000e00f5d00e08f5d0002003a00100020007b
:1011f000b0b79f008d007800010cb200e1b79f00ee
:1012000000042000808f50003000320003003c00ba
:101210000100e00008003200400037000008200014
:101220006fb19700800f510014003200000c2000b5
:10123000800f510039003a0014c0b30045822000ed
:101240000b0037000400fb004300dd0005004000f8
:101250005001be004000be000040e10001c8e100b6
:1012600002d0e10003d8e1002b0039000442e8007d
:10127000f44f5200f3ff3a0027003700000120002e
:10128000010020006011b80014c0b3000040e1006c
:1012900001c8e10002d0e10003d8e1001e003900de
:1012a000450020000000d0008180d2000281d200e1
:1012b0008381d2008502e900faff3a000442e80087
:1012c000f04f5200f1ff3a00130037008000200079
:1012d000010020006011b80014c0b3000040e1001c
:1012e00001c8e10002d0e10003d8e1000a003900a2
:1012f0003c0020000000d0008180d2000281d2009a
:101300008381d2000c06e900faff3a000442e800ab
:10131000f54f5200f1ff3a00e4d79f00efd097005d
:101320000100fb003fb19700820f500002003d001a
:10133000e2d79f00040037003fb29700800f5200b1
:1013400001003d00b0b79f00cfb297000500e0005c
:101350000400320063806600020032008502e9006a
:10136000c5b79f000de8a3000b0032004fb69700f1
:101370003fb09700800f560003003c008000eb0058
:10138000c1b79f00040037004fb197003fb29700ec
:1013900004015100c2b79f00efd297000500fb0087
:1013a0000006eb00dcaf9f00cfb09700808f5000ad
:1013b0000200340000805000d0af9f000d28a30031
:1013c00037003200e18066000d18a3000c003200e7
:1013d000d00220000100e00001003a000080e90096
:1013e000ffb0970024020700e10f40000e0032001a
:1013f0002fb197000201e800a2b79f000a00370052
:101400000100e00008003200ffb097000002200059
:1014100019020700e10f4000030032002fb29700cd
:101420000402e800a4b79f00dfaa97000500e000cf
:101430000f0032000006eb00ffb097000003200011
:101440000d020700e10f4000030032002fb09700ab
:101450000000e800a0b79f000c06e800dfa8970096
:10146000810f5600f4ff3a000001eb00d2af9f005d
:101470003fb29700c320dd00c08120008080400083
:1014800091b79f004220dd006400500080b79f00ac
:101490006320b900f0af9f0063065000840037005e
:1014a000dfaa97000500e0001100320068806600a6
:1014b0000f003a0000067800ffb0970000022000fd
:1014c000ed010700e10f4000030032002fb097004c
:1014d0000000e800a0b79f000c06e800dfa8970016
:1014e000810f5600f4ff3a000001eb00d2af9f00dd
:1014f000e18066000d18a3000c003200d00220002d
:101500000100e00001003a000080e900ffb0970010
:10151000d9010700e10f4000d5ff32002fb297003c
:101520000402e800a4b79f00d1ff37000100e000eb
:10153000cfff3200ffb0970000022000ce0107006d
:10154000e10f4000caff3200afb297008502e80009
:10155000a5b79f00c6ff370000042000efb097003a
:10156000808f50003100320003003c000100e00099
:10157000080032003e003700000820006fb19700dd
:10158000800f510011003200000c2000800f51002c
:1015900037003a001fb097003002be002003be00a3
:1015a0000800be000a01be00eefc0700a4002000f7
:1015b000050020006033b800f1fc070004c3b3004d
:1015c00004424000e4d79f0029003700b58c20007a
:1015d000d5b79f000d58a30002003a00c08d20002f
:1015e000d0b79f0014002000050020006033b80031
:1015f0008fb097008100e900050033000402d0009d
:101600008582d2000683d2008783d200f9ff37009b
:101610000800be000a01be00d2fc07006f00600097
:101620005fb197006240780010003700140020007e
:10163000050020006033b8000c0078000000e900cd
:10164000050033000402d0008582d2000683d20058
:101650008783d200f9ff37000800be000a01be00f0
:10166000c0fc0700674060000043b000e0d79f0067
:10167000efd097000100fb00ffb097007e0107004c
:10168000e10f4000030032002fb197000201e80093
:10169000a2b79f001fb297006802520094b79f0044
:1016a0008fb29700e482520085b79f006306560010
:1016b000d0ff2f003fb197000090b9007faa97009c
:1016c0000000420063005000800f5600a2ff3a0065
:1016d0000d38a30010003200dfaa97000500e000db
:1016e0000d0034000006eb00ffb097000002200060
:1016f00061010700e10f4000030032002fb09700a6
:101700000000e800a0b79f000c06e800dfa89700e3
:10171000810f5600f4ff3a00be407800e1d79f00e9
:101720000104e0005dfd3a002fb097004f077800fc
:101730004f06be004f05be004f04be00ef01b100d2
:1017400000000600889fbe000004780081447800f5
:1017500000fd2f0000004400e90f500002003e0091
:10176000000178000d003700080078006efb0700cc
:101770000000e000030032000800780070fb070062
:10178000000478000800780074fb07000000e00007
:101790000700320090fa2f00000144000980fb008e
:1017a000800f510002003d000280fb000100370065
:1017b000f00f20004f04be0000000600881f7800d4
:1017c000d048800073010700000478006dfb07001b
:1017d0000000e000faff3a00e10f4400030032008d
:1017e000d1488000080078009e0107004f0478006f
:1017f00000000600ec874700889fbe008a9fbe005d
:101800008c9fbe008e1f780081bf9f00020778006a
:10181000d04888008046eb00040137008884fb0034
:101820000900780057fb0700800078000000e00006
:1018300002003200e1ff0700fc00370050c2b30095
:10184000804f5400f0003a000fbd970020c0b30055
:10185000c0ef9f00d1ef9f0081ef9f000300370092
:1018600040c0b300c0ef9f000fbd97000fb99700b5
:10187000b240780082bf9f008184fb0090c6b30015
:1018800080cf50003500320017003e006640500007
:1018900080cf5000620032000c003e0077405000c4
:1018a00080cf50002800320006003e000104e00016
:1018b0009b003200a0c2b30080cf50006e003a00ff
:1018c0001d00370080c5b3001600370040c6b300c6
:1018d00080cf5000210032006440400080cf500093
:1018e00065003a001200370030c7b30080cf5000c7
:1018f0001e00320007003e006740500080cf5000bd
:10190000110032006340400080cf50005a003a007e
:101910001400370050c7b30080cf50000f003200d2
:101920006340400080cf500053003a00650037000c
:1019300020c0b300cbff3700dfe897008140e8000c
:10194000d1ef9f00c8ff37004fe9970080c0b30078
:10195000e24f5100c3ff3a00c1ff3700acc0b300f3
:10196000590037008cc0b3005700370093ff0700c1
:10197000dfe897000104e00002003a004e01780021
:10198000d2b79f00d0488000020107000004780011
:10199000e10f4000a20032008fec970012003700e8
:1019a0000a85e8008abf9f00160037008fb89700ad
:1019b0001100fb00800f5400f9ff32005fe997002f
:1019c0000204e00003003a005fb097000858780076
:1019d000d0b79f008944e9000a003200d048800057
:1019e000ec000700000478000800e800e10f500058
:1019f0000400360008007800e2fa07000000e0006a
:101a0000eaff3200dfe897000104e00087003a00b7
:101a10008d46e8005fb197000149780083003700e8
:101a20005fe897000004e00003003a008d46e800fc
:101a3000ce007800d1b79f00d0488000d5000700c5
:101a4000e10f4000760032005fe997000204e000f9
:101a500003003a00dfb0970080587800d1b79f00ac
:101a60000fe997000241e90082ef9f004240a90080
:101a70006e003400f0ff37000180fb0008fd2f00ee
:101a800008004000e90f50005f003e000a007800a7
:101a90001101070080ef9f008800780003003700e5
:101aa0000fb897000000e80080bf9f000fb99700b3
:101ab0001200fb0001004000e90f5000f8ff360063
:101ac00069ff37000cc1b3003cff0700d04880001d
:101ad000b0000700000578000040eb00e0ef9f0039
:101ae000d0022000800f550005003a00d048800049
:101af000a80007000005780011c0b300e1ef9f00c7
:101b00008c4078000a0078000eff0700e14f40008b
:101b10000a003a00d14880000a007800d10007008e
:101b20000d04e0004b003a00d048800030009000e7
:101b30000048a30043003200480037008fed9700b3
:101b40006044b8000c81fb00030020000800be00c8
:101b500004fb07000004be008c4078000a007800f7
:101b6000f8fe07000080fb00010020000804400090
:101b7000898448008b45e90007003200d048800086
:101b800084000700000578008c407800edfe070017
:101b9000e14f4000ebff3a008c4078000a007800eb
:101ba000e8fe0700e14f400003003a00d148800002
:101bb0000a007800ab0007006fe997000204e0001c
:101bc0000200320060041400e0841c005fe897000b
:101bd0000004e00015003a008d46e800cfe89700c9
:101be000e4cf500003003a004e0078000888be00a1
:101bf0000e0037000e81e90002077800120078001d
:101c00000808780009003700d0488000610007000c
:101c1000808f540005003200e10f40000b003a00b5
:101c20000d04e0000d0032000a0037008fb8970065
:101c30003144780081bf9f000804e000f7fe3a00bd
:101c4000040037000000eb0005003700d148800099
:101c5000840007000d80fb00010037000080eb00ce
:101c60004f0778004f06be004f05be004f04be0070
:101c7000cf00b10000000600889fbe000001780080
:101c800001047800b10090000118a3003d0032006b
:101c90000198a30003003a00180090000000e00043
:101ca00038003a000190a0003104980082047800c6
:101cb000f90fb200180090000000e00002003a00a6
:101cc00028009000000c7800ea8f540006003a00cb
:101cd000380090000078a30003003a0088007800e4
:101ce000d0002000e4ff070098009000580090000a
:101cf000808f50000b0032000100e80010049800b3
:101d00001800780009587800000c780011c0b30062
:101d10008091200001487800ea8f540006003200cc
:101d20001900370088007800094078008e0007000d
:101d30008004780014003700380090000088a30069
:101d40001100320018019000a80090004800900097
:101d500014fa070098009000810f50000400320030
:101d6000380090000003b300300498008084eb003a
:101d70000000eb001004980028009000000c780090
:101d8000010037008084eb00090078004f04be009a
:101d900000000600881f780000047800b000900062
:101da0000148a30007003a000108a3000500320023
:101db0000198a30008003200100090000000e0002d
:101dc00005003200380090000040a0003004980068
:101dd0008080eb00200037000190a10031049800c2
:101de000180090000000e000060034000000e90048
:101df0001004980018007800b080fb00000c7800f8
:101e000006003700380090000068a300edff3a009c
:101e100008007800970007008000780038009000e4
:101e20000078a3000c003a00fa8f500008003a0036
:101e3000280090000000e000e2ff3200180090004f
:101e40000000e80010049800180ce900ddff3700de
:101e5000ed8f5000e2ff3200010078004f0478005f
:101e60000000060080017800e10f400017003200fa
:101e7000310090000008a300140032000098a30075
:101e800012003a00210290000400e0000f0032002e
:101e90001101900051009000800f51000b003200a2
:101ea00011007800840f500002003a008008e8001a
:101eb000020037000200e800900098001100e900dd
:101ec0008008780003487800010037008081eb002b
:101ed00003007800000006000001780000c2b30093
:101ee000010037000201e8009240780080cf5000e6
:101ef000fcff3200e9cf5000faff3200d0c2b3003d
:101f000080cf500003003a000201e80014c0b30083
:101f1000050037000042eb00b0c2b30080cf500094
:101f200001003a000201e8008000eb0005fd2f00ef
:101f3000040037006a08b9000080410085004000b5
:101f40000201e8009201fb0005804100e90f50000a
:101f5000f8ff36000404e000010032008100ea00ce
:101f600001007800000006000200fa00889fbe0011
:101f7000a0ff9f0001047800b10090008104780068
:101f80000904b200020032000000fb0036003700f6
:101f90000118a30005003a000103b30031049800c2
:101fa000190498000080eb002f00370058009000c3
:101fb0000000e00006003a004800900012002000f7
:101fc000e680570077f907001904980024003700cd
:101fd000280090000000e00008003a004091200036
:101fe00020049800000c7800200020005004980085
:101ff000100498000130a0003104980018019000ee
:10200000a80090004800900066f9070028009000a2
:10201000000c78000080eb00100498001800780095
:10202000aff8970001587800000c78002ff897005f
:10203000ea4f50000a003a00380090000088a300e0
:102040000700320018019000a8009000480090009e
:1020500054f9070019049800a8009000010c7800ba
:10206000aff897000100fb004f04be000080fa00ab
:10207000000006000200fa00889fbe008a1f780058
:10208000000478000000eb00100498003800900075
:102090008080eb000008a3003f0032008091200008
:1020a0001004e00010003200098f20006a8f200029
:1020b0001a0078006c0545002010b20021102000a5
:1020c000810f500002003a00090078003700070035
:1020d000ec84440040912000808f5400f4ff3a00cb
:1020e000809120000048eb004800900058019000cb
:1020f0000200e0000d003a001204980012002000d7
:10210000e88057005ef90700e10f500003003a0035
:102110000ff897008080fb001f0037003800900008
:102120000040a0003004980012003700a800900082
:1021300053f90700100498000000e000030032008b
:10214000e10f40000d003a00030037003800900016
:102150000040a00002003700380090000003b300e8
:1021600030049800a8009000010c78000000eb00fb
:10217000100498008080eb0007003700a800900052
:10218000010c78000000e9001004980001007800bc
:10219000b080fb00000c7800010078004f0578004b
:1021a0004f04be000080fa0000000600881f78007f
:1021b00000047800300090000008a30007003200ff
:1021c000800078000120b20004003a001104980059
:1021d000a8009000010c7800170037000018a30039
:1021e000190032000098a30017003200a8009000e8
:1021f0000100e00014003200180190000200e0002d
:102200001100320048009000e6f8070098009000a6
:10221000810f500003003200380090000003b3002b
:10222000300498000000eb00100498002800900093
:10223000000c7800380090000058a3000200320023
:102240000080eb00010037000000eb004f04780035
:042250000000060084
:020000040000fa
:1000080090020000900200009002000090020000a0
:100018009002000090020000900200009002000090
:100028009002000090020000900200009002000080
:100038009002000090020000900200009002000070
:10004800900200009002000090020000a01400003e
:100058009814000090020000900200009002000036
:1000680090020000d01200009002000090020000f0
:100078009002000090020000900200009002000030
:100088009002000090020000900200009002000020
:100098009002000090020000900200009002000010
:1000a8009002000090020000900200009002000000
:1000b80090020000900200009002000090020000f0
:1000c80090020000900200009002000090020000e0
:1000d80090020000900200009002000090020000d0
:1000e80090020000900200009002000090020000c0
:1000f80090020000900200009002000090020000b0
:10010800900200009002000090020000900200009f
:10011800900200009002000090020000900200008f
:10012800900200009002000090020000900200007f
:10013800900200009002000090020000900200006f
:10014800900200009002000090020000900200005f
:10015800900200009002000090020000900200004f
:10016800900200009002000090020000900200003f
:10017800900200009002000090020000900200002f
:10018800900200009002000090020000900200001f
:10019800900200009002000090020000900200000f
:1001a80090020000900200009002000090020000ff
:1001b80090020000900200009002000090020000ef
:1001c80090020000900200009002000090020000df
:1001d80090020000900200009002000090020000cf
:1001e80090020000900200009002000090020000bf
:0801f8009002000090020000db
:020000040000fa
:10020800900200009002000090020000900200009e
:10021800900200009002000090020000900200008e
:10022800900200009002000090020000900200007e
:10023800900200009002000090020000900200006e
:10024800900200009002000090020000a01400003c
:100258009814000090020000900200009002000034
:1002680090020000d01200009002000090020000ee
:10027800900200009002000090020000900200002e
:10028800900200009002000090020000900200001e
:10029800900200009002000090020000900200000e
:1002a80090020000900200009002000090020000fe
:1002b80090020000900200009002000090020000ee
:1002c80090020000900200009002000090020000de
:1002d80090020000900200009002000090020000ce
:1002e80090020000900200009002000090020000be
:1002f80090020000900200009002000090020000ae
:10030800900200009002000090020000900200009d
:10031800900200009002000090020000900200008d
:10032800900200009002000090020000900200007d
:10033800900200009002000090020000900200006d
:10034800900200009002000090020000900200005d
:10035800900200009002000090020000900200004d
:10036800900200009002000090020000900200003d
:10037800900200009002000090020000900200002d
:10038800900200009002000090020000900200001d
:10039800900200009002000090020000900200000d
:1003a80090020000900200009002000090020000fd
:1003b80090020000900200009002000090020000ed
:1003c80090020000900200009002000090020000dd
:1003d80090020000900200009002000090020000cd
:1003e80090020000900200009002000090020000bd
:0803f8009002000090020000d9
:020000040000fa
:10225400476500006e650000726100006c2000009c
:10226400436100006c6c00002052000065630000b4
:102274006569000076650000640000005772000084
:102284006974000065200000696e000020500000a1
:10229400726f00006772000061730000732e00000b
:1022a40020430000616e000074200000777200007b
:1022b40069740000652000006e650000772000004e
:1022c4006461000074610000206e00006f770000fc
:1022d400004e000065770000204400006174000097
:1022e400612000005265000063760000642c000049
:1022f40062650000666f00007265000020720000d5
:1023040065610000646900006e67000020650000dc
:10231400617200006c6900006572000020640000b6
:102324006174000061000000537400006f700000cd
:10233400204200006974000020440000657400001d
:1023440065630000746500006400000053740000bd
:1023540061720000742000006269000074200000b3
:102364004465000074650000637400006564000047
:10237400004d0000617300007465000072200000cd
:10238400476f0000696e000067200000746f000052
:102394002052000065610000640000004d610000ef
:1023a4007374000065720000206700006f6900000c
:1023b4006e670000207400006f2000005772000058
:1023c40069740000650000004932000043520000b7
:1023d4004356000020690000732000004675000089
:1023e4006c6c0000004900003243000052430000be
:1023f400562000006973000020460000756c000040
:102404006c2e0000206d00006173000074650000f4
:102414007220000069730000206700006f690000eb
:102424006e670000207400006f20000072650000d9
:102434006164000000490000324300005243000080
:10244400562000006973000020460000756c0000ef
:102454006c2e0000206d00006173000074650000a4
:102464007220000069730000206700006f6900009b
:102474006e670000207400006f2000007772000077
:1024840069740000650000004c6100007374000072
:10249400206200007974000065200000726500006d
:1024a400637600006420000069730000204400008b
:1024b40061740000610000004c610000737400004e
:1024c400206200007974000065200000726500003d
:1024d400637600006420000069730000204100005e
:1024e400646400007200000074720000616e0000f9
:1024f400736d000069740000206900006e20000004
:10250400707200006f670000726100007373000056
:102514000052000065630000766400003a20000069
:10252400256400000a000000256300000077000015
:1025340072690000746500002044000061740000aa
:10254400612000002d20000053740000617200001f
:102554007400000042750000732000004275000002
:1025640073790000004200007573000020460000eb
:102574007265000065000000777200006974000055
:10258400652000004461000074610000202d0000fb
:0c259400204500006e6400000000000004
:020000040000fa
:1025a0003600f800809fbe00829fbe00849fbe0060
:1025b000869fbe000000fa0009c2bf0062406000b2
:1025c0000004e00002003200a01229003d010700d3
:1025d00008c2bf0001c8b300014060000004e00071
:1025e00002003200001429003601070008c2bf00b3
:1025f0000044b2000004e00004003200b0162900dc
:102600003001070008c2a9006500070008c2bf002a
:10261000704060000004e0000200320060192900f0
:102620002801070008c2bf00684060000004e00005
:1026300002003200801a29002201070008c2bf00f0
:10264000644060000004e00002003200b01b29007a
:102650001c01070008c2bf00644060000004e000e5
:1026600002003a00001d29001601070008c2bf0041
:10267000624060000004e00003003200601e290098
:10268000100107004600070008c2bf00624060005a
:102690000004e0000900320008c2bf00644060008e
:1026a0000004e00005003200501f2900050107006a
:1026b0000782a900790007000782a80008c2bf00ae
:1026c000624060000004e0000700320008c2bf0062
:1026d000644060000004e00003003a00d0212900bb
:1026e000f80007002e00070008c2bf000042b20039
:1026f0000004e0000200320060242900f10007001d
:1027000008c2bf000042b2000004e00002003a002c
:10271000e0252900eb00070008c2bf00614060000f
:102720000004e0000200320060272900e5000700f5
:102730008620a9000080fa004f03be004f02be00b1
:102740004f01be004f00be003600f90000400600f9
:102750000000fa00c01220002010880000002800ad
:10276000301088000742a90006c2a80006e2a800af
:102770000000eb0060108800500520005010880019
:102780009620a8008620a900c012200020108800f2
:10279000550007000000eb000080fa000000060072
:1027a0000600fa000040eb00204798000000eb0014
:1027b000000f780000802000020220008000eb0063
:1027c000f9f8070000108000000f78001e00780064
:1027d000801f7800b0282900801f7800008020002a
:1027e000f8f80700e487570000802000b5000700d4
:1027f0000e80e800801f780060292900801f780083
:102800000080200006f90700e48757002e40900062
:102810000a0007000000e00003003d000080eb001c
:1028200020079800020037000000eb002007980006
:102830002e0090000080fa00000006000600fa005a
:102840002047980010c4b300004f780010c4b300b4
:10285000004f7800090037002e4090009e4f100076
:1028600005003a002e40900020e8b7000000eb0081
:1028700020079800060037001e4fe800a0c5b300ef
:102880009e4f1000f4ff34000080eb0020079800fa
:102890002e0090000080fa00000006000000fa0000
:1028a0009029290087000700140007000004e000b9
:1028b00003003a00c02a2900820007000200370006
:1028c000502b29007f00070020c8bf000000fb003c
:1028d00010108800e02b29007a0007000080eb0030
:1028e0000080fa00000006000000fa00200320002b
:1028f0000100200027010700fcff37000200fa005a
:1029000008c2bf00704060000004e0000300320015
:1029100010002000000f7800020037000000eb00dc
:10292000000f78001e0078000080fa00000006000a
:102930000000fa008580a9000080fa00004006002f
:102940000000fa008560a9000080fa00004006003f
:102950000000fa00d000200020358800703680008a
:102960003000b30070368800c9e2a8007001200072
:102970004011880021e2a90021a2a9002182a9001a
:102980002162a9001122200091407800c0cfb3003d
:1029900000c0600021e2b70020e2a90020c2a90027
:1029a00020a2a9002082a9002062a9000122200003
:1029b0009140780090cfb30000c0600020e2b700e3
:1029c0002002a90023e2a90023c2a90023a2a90092
:1029d0002362a9002342a9002322a9002302a900ff
:1029e00022c2bf00f043b20022e2b70022a2a90037
:1029f0002282a9002262a9002242a9002222a90063
:102a00002202a90021e2a8002342a8000000eb0056
:102a10000080fa00000006000000fa0031e2a90080
:102a200031a2a9003182a9003162a900112320003e
:102a300091407800c0cfb30000c0600031e2b70021
:102a400030e2a90030c2a90030a2a9003082a9005a
:102a50003062a900012320009140780090cfb3009c
:102a600000c0600030e2b7003002a9007001200011
:102a7000c011880033e2a90033c2a90033a2a90023
:102a80003362a9003342a9003322a9003302a9000e
:102a900032c2bf00f043b20032e2b70032a2a90056
:102aa0003282a9003262a9003242a9003222a90072
:102ab0003202a90031e2a8003342a8000080fa00e7
:102ac000000006000600fa00200798000000eb0056
:102ad000100798000000eb00000f78002e00900017
:102ae0005df80700000f78000000eb001007980069
:102af0000d0037001e009000800078002e0090002e
:102b000000804000104078000000fb002011880089
:102b1000c02b2000010020009e0007001e00900036
:102b20000000e800100798001e0090009e0f500063
:102b3000f0ff3500a000200020118800c02b2000ed
:102b40000100200093000700d00020002011880021
:102b50000000eb000080fa00000006000200fa000e
:102b600004003700b0118000004f78000e0078009c
:102b7000d4ff070032c2bf00614060000004e000e3
:102b8000f8ff3a00fbff37000200fa0004003700ac
:102b900030118000004f78000e007800c9ff070058
:102ba00022c2bf00614060000004e000f8ff3a006c
:042bb000fbff3700f0
:020000040000fa
:102bb40022080000020000000000000000080000dd
:102bc400220000000000000024080000a000000013
:102bd40002000000010000000000000000000a00e4
:102be400000000000000000000640000000000007d
:102bf40000000000e80300000000000000001000d6
:102c0400270000000000000000a086000100000072
:102c14000000000040420f0000000000000080009f
:102c240096980000000000000000e100f505000097
:102c34000000000000ca9a003b00000000000000f1
:102c4400e40b5400020000000000e800764817007e
:102c5400000000000010a500d4e8000000000000ff
:102c6400a0724e0018090000000040007a10f30022
:102c74005a0000000080c600a47e8d0003000000fe
:102c840000c16f00f2862300000000008a5d780016
:102c94004563010000006400a7b3b600e00d000026
:102ca40000e889000423c7008a000000c40800006b
:102cb4002a00000002000000286e75006c6c2900d8
:102cc40000303100323334003536370038394100b2
:102cd400424344004546000030313200333435006d
:102ce40036373800396162006364650066000000ad
:102cf4001a0900000200000000000000ee080000b5
:102d04002600000002000000f00816000900000080
:102d14001609090000000000020014000900000068
:102d24001409060002010000000000000000000079
:102d34000000060002020000000000001409000068
:102d440006000000000000001c0900000200000052
:0c2d540002000000010000000000000070
:020000040000fa
:102d60000000fa0022c8bf000004e00004003a009e
:102d700010c0b30022e8b700ca82a90003003700e0
:102d80000040eb0022e8b700ca82a8000080fa00e9
:102d9000000006000c00fa00400798005107980058
:102da0006000b80020079800310798006000b80064
:102db000008fbe006000b80020079800310798001f
:102dc000120037006000b800008fbe00040037001a
:102dd00010002000010020001e0f40005e974800f8
:102de0004e009000de009000be0f1000ae8f180065
:102df000f7ff35002e009000be00900061004000fb
:102e0000e080480020079800310798002e019000cc
:102e1000be0190002000200001002000800f510022
:102e2000818f5900e7ff34000000eb000080fa00ba
:102e3000000006000000fa000000eb0020168800e9
:102e40000000eb00001688000000eb006016880010
:102e50000000eb004016880000682000103a88004f
:102e6000c062a800ca82a800c282a800bcff0700f6
:102e70008038210001002000c6ff0700fbff37005b
:102e80000000fa00ebff0700b1fe070030fe07006c
:102e90000000eb000080fa00000006000000fa00cd
:102ea000f7ff07002003200001002000b9ff070002
:042eb000fcff3700ec
:00000001FF
